:020000040800F2
:1000000000500020790800081108000811080008B5
:10001000110800081108000811080008000000007D
:1000200000000000000000000000000011080008AF
:100030001108000800000000110800084D03000826
:1000400000000000000000000000000000000000B0
:1000500000000000000000000000000000000000A0
:100060000000000000000000000000000000000090
:100070000000000000000000000000000000000080
:100080000000000000000000000000000000000070
:100090000000000000000000000000000000000060
:1000A0000000000000000000000000000000000050
:1000B0000000000000000000000000000000000040
:1000C000000000000000000000000000110800080F
:1000D0001D0A0008000000000000000000000000F1
:1000E0000000000000000000000000000000000010
:1000F00000000000000000000000000011080008DF
:1001000000000000110800080000000000000000CE
:0401100000000000EB
:1001140010B44FF4A0400024124A1349936943F4E5
:10012400017393610B68A2F56C4223F470230B6096
:100134000E4B546093601061936843F0080393601E
:1001440093681B07FCD49368094943F00403936044
:100154008B6813F00403FBD1042210BC4A63CB6206
:10016400704700BF001002400008014001000E006B
:1001740000240140044B9A6842F001029A609A6894
:1001840042F480029A607047002401400C4B1A68C4
:10019400920711D540F6E44C7A21D86C094B80B211
:1001A4000CFB00F0000B01FB00F0A3FB0030064A3F
:1001B400C0F30F1010807047034B1888704700BFBE
:1001C40000240140A38B2EBA180000200120054A08
:1001D4000549136823F00F0343F004031360888177
:1001E400704700BF00080140000000203A4B9B68A4
:1001F400DA0770D52DE9F041384A516853685B1A23
:10020400B3F56A7FFAD9364E4FF0010C3546B6463F
:100214003148324A06F120040027B8468368DB07D8
:1002240005D50CFA07F348EA03085FFA88F8516821
:1002340053685B1AB3F51C7FFAD90137082FEDD147
:100244000EF8018B8368DF0715D4516853685B1A75
:10025400C72BFBD9A64517D08368D9070DD440F224
:10026400E737516853685B1A632BFBD98368DB0754
:1002740003D4013FF5D1BDE8F081516853685B1A9E
:10028400B3F56A7FFAD9C7E72B78202BF3D16B78C3
:10029400402BF0D10023134A02F11E0012F8011F73
:1002A4000B4482429BB2F9D1EA8B9A42E3D10E4BC2
:1002B4001A4603F10C00F47816F8021F41EA0421EF
:1002C40022F8021B9042F6D14FF0E0214FF48072E5
:1002D40089699A81CFE7704700080140001000E067
:1002E400200000201F00002000000020004870476C
:1002F40000000020034600B330B585B0EC46EE465E
:100304000020104DA5FB0342D20802EB8204A3EBAC
:10031400440303F13004013013460EF8014B002A64
:10032400F0D10C1823461CF8012B03F8012D8B4245
:10033400F9D10023237005B030BD302201204B7069
:100344000A707047CDCCCCCC024A136801331360D9
:10035400704700BF540000204FF400502DE9F04FC7
:100364009449954A8B69A5B043F01C038B611368CB
:10037400924C23F0F00343F080031360D3680A2502
:1003840043F00203D360636823F4700343F400135F
:1003940063602061FFF71AFF4FF4E13000F090FA38
:1003A40000F0A4F9FFF7B4FE0021854AE36883F462
:1003B4000053E3600691069B934205DC069B0133E0
:1003C4000693069B9342F9DD013DEFD14FF40052B1
:1003D4007A4BDFF8F0B11A61DFF8EC91FFF7CAFE4F
:1003E40015AC02950AAF14AE06F1030A774BD3F8A5
:1003F4000080FFF7FBFEFFF779FF037B03934021A7
:10040400304600F095FA002863D0304633467049F0
:1004140013F8012B11F8015BAA422ED10AB1A342B1
:10042400F6D12246019010780DF1200EA0F1300192
:10043400CBB2092B20D80023944612F8010F03EB0A
:10044400830301EB4303A0F13001CDB2092DF3D9AD
:10045400A3F56172B2F5966F0ED82EF8023B77457C
:1004640073D02C2808D19CF802000CF10202A0F1F0
:100474003001CBB2092BDED901983346554913F824
:10048400012B11F8015BAA4208D10AB15345F6D1F8
:100494009DF85330002B61D00D2B5FD04E4AB51D13
:1004A40010F8013B12F8011B8B42A8D10BB1854215
:1004B400F6D19DF856300BB10D2BA0D1474A029BC3
:1004C400402130461370C9F8008000F031FA00284A
:1004D4009BD1394B05469B689B070ED5D9F8003054
:1004E400A8EB0303B3F5FA7F07DC039B2BB93B4B63
:1004F4001B78002B40F0C580012500F07DF9374AB8
:10050400029B1370364B1B68A8EB0303002B6FDAB6
:10051400344B1B68A8EB0303002B25DA324B1B6812
:10052400A8EB0303002BFFF661AF4346A8461D4624
:10053400B8F1000F40F0B18020496433CA6882F4F6
:100544000052CA60284A13604EE7099BC9F800802C
:10055400CBF80430089BCBF8003050E701231F4A46
:10056400C9F8008013704AE7FFF704FE029B079363
:10057400079BB3F57A7F06DA079B01330793079B42
:10058400B3F57A7FF8DBFFF701FE184B08930028D8
:1005940040F08E803023ADF824300523029A6B445A
:1005A40083F8202008A800F00BFA0E4A08F5FA7325
:1005B4001360B3E70010024000080140001001403E
:1005C4001FA107001000002050000020540000204C
:1005D4005C0A0008640A0008680A00084C0000204D
:1005E4004800002044000020400000204241542CD8
:1005F400FFF77CFE44F252334FF02C02ADF820306A
:10060400032301468DF82220821E0A300195CDF87D
:100614000C80CDF814A0984605469246049108AB88
:1006240003EB08013AF8020FFFF764FE4FF02C02C7
:1006340000EB08030DEB0301554581F8202003F17D
:100644000108ECD14346049908AA087BD118003864
:1006540018BF0120019DDDF80C800193DDF814A082
:10066400FFF748FE019B0DEB00021344029A08A811
:1006740083F8202000F0A4F9174A08F164031360FA
:1006840046E7BBF80630BBF80420BBF80210BBF801
:10069400000000F07FF8012534E7104B1B7863B1AC
:1006A4000F4905F5FA73CA6882F40052CA6049E733
:1006B40009A9FFF71FFE031D70E70A4B0A4A05FB51
:1006C40003F3B2EBB30F04D3054AD36883F40053A6
:1006D400D36005F1FA0335E7480000204C00002000
:1006E40000100140D578E9266E128300264B44F6AB
:1006F4001F610022472030B49C6941F2111544F077
:100704000C049C61DC6944F00204DC611F4C236826
:1007140023F0706343F040732360236823F0704335
:1007240043F040532360D4F8003423F00F0343F024
:100734000303C4F80034D4F8003423F0F00343F086
:100744003003C4F80034124B4FF47A749862D962BF
:100754005A629A69012142F068029A619A6942F4E4
:10076400D0429A61DA6942F06802DA61DA6942F4E5
:10077400D042DA6181225C639C63DC631C641D6289
:1007840059611A6030BC70470010024000080140F3
:1007940000040040B0F5FA6F28BF4FF4FA60B1F5D9
:1007A400FA6F28BF4FF4FA61B2F5FA6F28BF4FF41D
:1007B400FA62B3F5FA6F28BF4FF4FA63B0F57A7FA3
:1007C40038BF4FF47A70B1F57A7F38BF4FF47A713D
:1007D400B2F57A7F38BF4FF47A72B3F57A7F38BFB7
:1007E4004FF47A7310B4034C6063A163E26323642F
:1007F40010BC7047000400404FF47A72024B5A63F5
:100804009A63DA631A64704700040040FEE700BF8D
:10081400154A30B4136843F48033136013689903A2
:10082400FCD55368104943F4E0135360136843F054
:10083400807313600B689B01FCD54FF0E02300200C
:100844000524D3F8F01D094A41F08071C3F8F01D66
:1008540050601168064D41F0010111605D619861BD
:100864001C6130BC704700BF00100240001000E063
:100874003F19010008B50D480D4B834206D20D4ABD
:1008840052F8041B43F8041B8342F9D30A4B0B4A66
:10089400934204D2002143F8041B9342FBD3FFF795
:1008A400B7FFFFF759FD30BFFDE700BF1800002078
:1008B40000000020700A00081800002064010020D5
:1008C400154B00EBD07C03EB6C03F0B4012142F236
:1008D4002C06402593FBF0F0104A114C976947F021
:1008E40004079761D76947F40037D76122680D4F31
:1008F40022F4706242F440722260226822F4704250
:1009040042F480422260084C084AB860FE60656088
:100914001160F0BC704700BF00A24A0400100240FE
:10092400000801400044004000E100E058000020BD
:1009340000292FDD2DE9F043804600261D4BDFF80A
:1009440078901F68B646D9F800301C484D1E08F14F
:10095400FF340FE0AE451FD00126C15CD2F1000C7C
:10096400D3B25FFA8CF258BF53420A2904F8011F2C
:10097400B64416D09F4203F10102EBD10EB1C9F87F
:1009840000700023BEF1000008F80E3018BF0120EB
:10099400BDE8F08300207047002EF2D0C9F8003083
:1009A400EFE7C9F80030002308F80E303046BDE800
:1009B400F08300BF600000205C0000206400002081
:1009C40010B4124C2368F3B18446007860B1104926
:1009D400104B01E0013B14D00A681206FAD54860B6
:1009E4001CF8010F0028F3D10A4B094901E0013B2F
:1009F40007D00A681206FAD50A23012010BC4B60FE
:100A0400704700232360002010BC7047580000206A
:100A140000440040A08601000B4B1A68920612D5D0
:100A24000A4810B401685C684B1C5A42D2B2DBB26B
:100A340058BF5342064A12689A4202D0054A0360DC
:100A4400545410BC704770470044004060000020BC
:100A54005C000020640000204D4F542C0000000076
:0C0A640041524D0044495341524D0000E6
:100A70000000000000000000000000000100000075
:080A8000E803E803E803E803C2
:04000005080008796E
:00000001FF
